:1000000000800020394B0000654B0000654B00006C
:10001000654B0000654B0000654B0000654B000020
:10002000654B0000654B0000654B0000654B000010
:10003000654B0000654B0000654B0000654B000000
:10004000654B0000B1020000654B0000654B0000ED
:10005000654B0000654B0000654B0000654B0000E0
:10006000654B0000654B0000654B0000710200000D
:10007000654B0000654B0000654B000045380000F3
:10008000654B000091320000654B0000654B00009D
:10009000654B0000654B0000654B0000654B0000A0
:1000A000654B0000654B0000654B0000654B000090
:1000B000654B0000654B0000853E0000654B00006D
:1000C000654B0000654B0000654B0000654B000070
:1000D000654B0000654B0000654B0000654B000060
:1000E00010B5054C237833B9044B13B10448AFF372
:1000F00000800123237010BDC80000200000000014
:100100003066000008B5064B1BB106480649AFF340
:1001100000800648036813B1054B03B1984708BD3A
:100120000000000030660000CC000020C400002069
:1001300000000000154B002B08BF134B9D46A3F594
:10014000803A00218B460F461348144A121A05F0D4
:10015000ABF90F4B002B00D098470E4B002B00D073
:1001600098470020002104000D000D48002802D00F
:100170000C48AFF3008005F071F92000290000F071
:100180007BFB05F057F900BF00000800008000204D
:100190000000000000000000C8000020D401002082
:1001A000000000000000000080B483B000AF0346F0
:1001B000FB71084B97F907205209F97901F01F01EB
:1001C000012000FA01F143F822100C37BD465DF81A
:1001D000047B704700E100E080B483B000AF0346C9
:1001E000FB71094B97F907205209F97901F01F01BA
:1001F000012000FA01F1603243F822100C37BD46AD
:100200005DF8047B704700BF00E100E080B500AFFF
:1002100004F0B8FC80BD00BF80B483B000AF78604C
:10022000044B7A68C3F81C210C37BD465DF8047B8B
:10023000704700BF0060004080B584B002AF3960F5
:100240000146F971BA717B71FA79BB7979790091BC
:10025000397C0191104639683A6801F093FC0837FF
:10026000BD4680BD80B400AFBD465DF8047B7047DD
:1002700080B500AF4FF40070FFF7CEFF094B0222AC
:100280001A60094B00221A60064B1B68022B03D12F
:10029000064B04221A6003E0044B01221A6000BFDF
:1002A00080BD00BFC0010020B8010020C8010020AF
:1002B00080B582B000AF4FF48060FFF7ADFF094B0F
:1002C0001B687B60084B1B6801337A68B3FBF2F252
:1002D000796801FB02F29A1A034B1A600837BD468F
:1002E00080BD00BFC8010020B801002080B582B0E9
:1002F00002AF1748012100F09BFE012009210122D5
:10030000002301F0A5FC01200A210122002301F0B5
:100310009FFC012300930120092100220123FFF704
:100320008BFF0123009301200A2100220123FFF704
:1003300083FF0120FFF750FF0120FFF735FF0B205F
:10034000FFF74AFF0B20FFF72FFFBD4680BD00BF20
:1003500000D20400B0B588B000AF3148012100F0F0
:1003600067FE304B07F108041D460FCD0FC495E81A
:10037000030084E803004FF4E1333B6105237B7500
:100380000023FB824FF480533B8300233B75002303
:10039000BB760023FB7600233B7707F10803224856
:1003A000194603F043F900233B7100237B710023BE
:1003B000BB710023FB7100237B710023BB71002301
:1003C000FB713B1D1848194603F08AF9174B174A71
:1003D000126F22F00F0242F004021A67144B144A03
:1003E000926A22F4E06242F480729A62114B114ADE
:1003F000526D22F4E06242F440725A650A4B0A4A96
:10040000526D22F4E06242F480725A65064B064A4D
:10041000526D42F002025A652037BD46B0BD00BFA2
:1004200000120400945D000000C400400060004021
:100430000060084000E4004080B584B000AF786000
:100440007B68B3F1FF3F03D14FF0FF33BB6008E09F
:100450007B68DB000F4A82FB0312D210DB17D31A32
:10046000BB600023FB600FE0FA68BB689A4204DCC3
:10047000F868012104F064F803E0F868002104F052
:100480005FF8FB680133FB60FB68072BECDD10377E
:10049000BD4680BDABAAAA2A80B586B000AF244A6B
:1004A00007F10C031188927819809A7002F09AFF74
:1004B0007861786904F0DEF87B69B3F1FF3F03D11E
:1004C0001C4804F029FA30E03B1D184607211A4A5F
:1004D00004F0F2FF7A6913465B001344DA00D31A82
:1004E000164A82FB0312D210DB17D31A3B613B6919
:1004F000134A82FB03C2DB17D01A3969104B83FB06
:1005000001C2CB17D21A13465B001344CA1A07F173
:100510001803134413F80C2C07F11803034403F8D1
:10052000142C3B1D184604F0F7F91837BD4680BD62
:10053000C05D0000AC5D0000B45D0000ABAAAA2A5B
:100540005655555580B584B000AF304B1B68032B12
:100550003AD801A252F823F0690500008105000095
:1005600099050000B10500003B1D18460721284AE7
:1005700004F0A2FF002002F0F9FE0346FB732FE017
:100580003B1D18460721234A04F096FF012002F084
:10059000EDFE0346FB7323E03B1D184607211E4A70
:1005A00004F08AFF022002F0E1FE0346FB7317E02D
:1005B0003B1D18460721194A04F07EFF032002F074
:1005C000D5FE0346FB730BE03B1D18460721104A7E
:1005D00004F072FF002002F0C9FE0346FB7300BF67
:1005E0003B1D184604F098F9FB7B184602F0DEFE2E
:1005F00003463B603B68184604F03CF83B4618460F
:1006000000F026F91037BD4680BD00BFB8010020BC
:10061000C45D0000CC5D0000D45D0000DC5D000026
:1006200080B586B000AF02F0DDFE7861184B1A6825
:100630007B699A4228D0164B7A691A60786904F06F
:1006400019F87B69B3F1FF3F01D100237B61114BA6
:100650001B68184604F086FF0346073B7A6902FBD5
:1006600003F20D4BA3FB02135B093B61094B1A68B4
:100670003B6913443A1D10460821084A04F01CFF48
:100680003B1D184604F048F91837BD4680BD00BF31
:100690000800002004000020ABAAAAAAE45D000024
:1006A00080B584B002AF434B1B78FB7103F0F8F9BF
:1006B000414803F0B1F94148414902F0D5FD414BB1
:1006C0001B78DBB25BB2032B72D801A252F823F085
:1006D000F706000015070000E1060000FD06000017
:1006E000012002F0F7FC03F055FF04F0E1F9354B6F
:1006F00000221A705DE002F025FF5AE0002002F0AF
:10070000E9FC2C4B1B78184603F058FF2D4B0122B7
:100710001A704EE002F016FF02F064FE38603B688B
:10072000B3F1FF3F0AD0244B1B6800220092184609
:1007300000214FF47A72244B03F002FA3868FFF775
:100740007BFE04F0A5F9214804F0BEF90346002B16
:1007500016D0184B01221A70164B1B78FA799A4260
:100760000AD0144B1B78184603F028FF114B1B7856
:100770000120194604F038F80E4B1B78FB7102E09B
:100780000C4B00221A70124B1B68012B09D0012B55
:1007900004D3022B08D1FFF7D5FE08E0FFF740FF96
:1007A00005E0FFF779FE02E0FFF7CCFE00BF00E0B6
:1007B00000BF84E7E4000020BC010020F507000032
:1007C0000108000000000020D50700009A99394078
:1007D000C001002080B483B000AF78603960044B62
:1007E00002221A700C37BD465DF8047B704700BFCB
:1007F0000000002080B400AFBD465DF8047B704768
:1008000080B400AF034B03221A70BD465DF8047B31
:10081000704700BF0000002080B582B000AF002309
:100820007B600AE0084A7B6813441B780748194636
:1008300002F0F2FF7B6801337B607B681F2BF1DDE8
:100840000837BD4680BD00BFE800002000C400405E
:1008500080B582B000AF78607B681B6804480549AA
:100860001A4604F05BFEFFF7D7FF0837BD4680BD90
:10087000E8000020E85D000080B500AFFFF7F2FC63
:1008800004F0EAFAFFF7C2FC012002F061FEFFF774
:100890002DFDFFF75FFDFFF703FF0023184680BD26
:1008A00080B487B000AFF860B9607A60FB6803F18C
:1008B0000473DA00BB6813449B007B617B697A6830
:1008C0001A601C37BD465DF8047B704780B485B064
:1008D00000AFF860B9607A60FB681A68BB68DB43F8
:1008E0001A407B681A43FB681A601437BD465DF8EE
:1008F000047B704780B582B000AF786039607A6859
:100900001D4B9A4203D07A681C4B9A4200D100BF1B
:100910003B681B78DA073B685B789B0713431A46F2
:100920003B685B681B061A433B681B7A1B021A4331
:100930003B685B7A1B011A437B681A603B689B7AB1
:100940001B071A463B68DB7A1B041A433B68DB68CB
:100950001B02134343F0807343F0B0037A68536083
:100960007A683B681B7C104600211A46FFF798FF07
:100970000837BD4680BD00BF001000400014004095
:1009800080B584B000AFF860B960FA71BB71FA68E5
:100990000C4B9A4203D0FA680B4B9A4200D100BF2D
:1009A000FA68BB79DB00104608211A46FFF78EFF74
:1009B000BB681A02FB791A43FB68DA611037BD463F
:1009C00080BD00BF001000400014004080B487B01C
:1009D00000AFF860B9607A60FB6803F10473DA0075
:1009E000BB6813449B007B617B697A681A601C3783
:1009F000BD465DF8047B704780B485B000AF786079
:100A000039607B6803F10473DA003B6813449B0090
:100A1000FB60FB681B6818461437BD465DF8047B15
:100A2000704700BF80B485B000AF78607B68002B52
:100A300004D07B68B3F5004F00D800BF7B68B3FAE1
:100A400083F3C3F11F03FB60FB6818461437BD46F0
:100A50005DF8047B704700BF80B400AF044BDB6CD3
:100A60001B0EDBB21846BD465DF8047B704700BF25
:100A7000B081E00F80B584B000AF786039607A68EB
:100A80003B689A4294BF00230123DBB2FB60064817
:100A90001E21FA68FFF79AFF04480821FA68FFF759
:100AA00095FF1037BD4680BD00800C4004800C408F
:100AB00080B582B000AF07481E21FFF79DFF786028
:100AC00005480821FFF798FF38607B68184608370B
:100AD000BD4680BD00800C4004800C4080B582B0D3
:100AE00000AF214B5B6903F4E063B3F5007F1CD0DA
:100AF000B3F5007F05D8002B25D0B3F5807F1FD03C
:100B00002AE0B3F5C06F24D0B3F5E06F1ED0B3F583
:100B1000407F21D1FFF7A0FF0346122B02D9134BD0
:100B20007B601CE0124B7B6019E0FFF795FF0346EA
:100B3000122B02D90F4B7B6011E00F4B7B600EE054
:100B40000E4B7B600BE00E4B7B6008E00D4B7B6037
:100B500005E00D4B7B6002E000237B6000BF7B68FB
:100B600018460837BD4680BD00800C40804F1200FB
:100B700040420F0040B56400C0CF6A00C0D8A70053
:100B8000809FD500406F4001003FAB0180B582B02F
:100B900000AF0D4800F0A2FB0346FB70FB78072B6B
:100BA00005D0082B07D104F011F8786006E0FFF7B4
:100BB00095FF786002E000237B6000BF7B681846E9
:100BC0000837BD4680BD00BF06000C0080B485B06C
:100BD00000AF7860284BDB6B002B0CBF0023012398
:100BE000BB72254B41F67132DA63234B5B6803F02D
:100BF0000703FB60FB68012B01D9042B02D1002302
:100C0000FB7202E00123FB7200BF7A681B4B9A4221
:100C100007D9FB7A002B01D0052300E00423FB60F9
:100C200016E07A68154B9A420BD87A68144B9A42B0
:100C300007D9FB7A002B01D0032300E00123FB60DE
:100C400006E0FB7A002B01D0022300E00023FB60CA
:100C5000094B094A526822F00701FA680A435A60B0
:100C6000BB7A002B02D0044B0022DA631437BD4656
:100C70005DF8047B704700BF00000C400048E801AD
:100C80000024F40080B500AF03F096FF0346184639
:100C9000FFF79CFF80BD00BF90B585B000AF7860C6
:100CA0000023BB607B68344A934203D0334A9342AB
:100CB00000D000E000BF786800F010FB0346FB6046
:100CC0007B682D4A934203D02C4A934206D00CE015
:100CD0002B4B9B6A03F00303FB6006E0284B9B6AE7
:100CE00003F00C039B08FB6000BFFB68032B3AD8A2
:100CF00001A252F823F000BF2F0D0000090D0000E3
:100D0000110D0000190D000003F0FCFFB8602DE08C
:100D100004F00CF8B86029E003F034FF0446FFF754
:100D2000C7FE0346013324FA03F3BB601EE0002331
:100D3000BB607A68104B9A4203D07A680F4B9A4294
:100D400010D10F4B9A6A79680B4B994201D110234D
:100D500000E0142322FA03F3002B03D003F0DCFF9E
:100D6000B86003E002E00023BB6000BFBB68184628
:100D70001437BD4690BD00BF0200180003001A00E2
:100D800000800C4080B483B000AF7860094B5B6D8D
:100D900003F00103002B00D006E000BF054B1A6DE5
:100DA0007B681340002BF9D10C37BD465DF8047BFE
:100DB000704700BF00800C4080B582B000AF104883
:100DC00000F08CFA0346FB70FB78032B07D0082B4E
:100DD00009D0022B0BD103F0A9FF78600AE003F0E1
:100DE00091FF786006E003F0F1FE786002E00023F6
:100DF0007B6000BF7B6818460837BD4680BD00BFDA
:100E000007232000B0B584B000AF786039607B68FC
:100E10001B0903F00F03FB60FB68013B062B00F28C
:100E2000F38001A252F823F0450E000009100000E3
:100E300009100000790E0000A30E0000F10E000062
:100E4000B50F00003B68002B03D03B68082B00D88F
:100E500000BFFFF717FF6E4B6D4A126822F4E031B6
:100E60003A68013A92030A431A6003F08BFEB860B5
:100E7000B868FFF7ABFEC8E03B68002B04D03B68C6
:100E8000B3F5007F00D800BF3868FFF7CBFD3860AE
:100E90005F4B5F4A926822F00F013A680A439A60FA
:100EA000B3E03B68002B04D03B68B3F5007F00D86B
:100EB00000BFFFF7E7FE03F089FE02463B68B2FB86
:100EC000F3F318465349FFF7D5FD3868FFF7AAFD3D
:100ED00038604F4B4E4A526822F00F013A680A437D
:100EE0005A6003F04FFEB860B868FFF76FFE8CE001
:100EF0007B68494A93421ED0474A934203D8474AE7
:100F0000934207D055E0464A934225D0454A934242
:100F10003FD04EE00420FFF735FF3868FFF782FD31
:100F200038603B4B3A4A926E22F0F0013A68120167
:100F30000A439A663DE00420FFF724FF3868FFF774
:100F400071FD3860324B324A926E22F470613A6819
:100F500012020A439A662CE03B680F2B03D93B68C8
:100F6000802B00D800BF0420FFF70CFF3868FFF784
:100F700059FD3860264C264B9B6E23F440551020BB
:100F8000FFF750FD03463A68D31A1B032B43A366B1
:100F90000FE00420FFF7F6FE3868FFF743FD3860E6
:100FA0001B4B1B4A926E22F003013A680A439A6671
:100FB00000BF2AE07B681C4A934203D01B4A93423D
:100FC00010D020E04020FFF7DDFE3868FFF72AFD53
:100FD00038600F4B0E4A126F22F003013A680A4341
:100FE0001A6710E04020FFF7CDFE3868FFF71AFDC2
:100FF0003860074B064A126F22F030013A6812013E
:101000000A431A6700BF00E000BF1037BD46B0BDFD
:1010100000800C4000366E01602612006016100041
:101020006000240060062800700714007017160086
:1010300080B586B000AF78600B46FB7000233B6143
:101040007B681B0A03F00F03013B092B46D801A262
:1010500052F823F093100000991000007D1000005A
:10106000DD100000DD1000009F100000A91000003E
:10107000DD100000DD100000B3100000194B7B6193
:10108000194800F03FF8034618461849FFF7F2FCEC
:1010900012E0174B7B610FE0164B7B610CE0164BA7
:1010A0007B6101233B6107E0144B7B6110233B61B3
:1010B00002E0134B7B6100BF7B681B0B03F01F0337
:1010C000FB603B69002B02D03869FFF75BFEFB78C1
:1010D0007869F9681A46FFF779FC00E000BF183715
:1010E000BD4680BD40800C400043020000366E01CA
:1010F00008800C4044800C4058800C4060800C40BC
:1011000078800C4090B585B000AF78607B6803F4C0
:101110007813B3F5A01F00F0AB80B3F5A01F1AD869
:10112000B3F5402F00F0BF80B3F5402F08D8B3F5DA
:10113000003F3CD0B3F5802F2DD0002B27D0BEE050
:10114000B3F5801F3CD0B3F5901F47D0B3F5602FA7
:1011500000F0AD80B3E0B3F5001F00F0AC80B3F554
:10116000001F0AD8B3F5C01F25D0B3F5D01F7AD021
:10117000B3F5B01F00F08980A1E0B3F5181F4ED081
:10118000B3F5201F62D0B3F5101F35D097E003F000
:101190001DFDF86096E003F019FDF8604C4B9B686C
:1011A00003F00F03FA6822FA03F3FB608AE003F00E
:1011B000E9FCF86086E04748FFF76EFDF86081E0E3
:1011C0004448FFF769FDF860414B9B6E03F0F00364
:1011D0001B09FA6822FA03F3FB6073E03D48FFF74E
:1011E0005BFDF8603A4B9B6E03F470631B0AFA6870
:1011F00022FA03F3FB6065E03648FFF74DFDF86027
:10120000334B9B6E03F440531C0B1020FFF70AFC7A
:1012100003462344FA6822FA03F3FB6052E02D48A8
:10122000FFF73AFDF8602A4B9B6E03F440531B0B0B
:10123000FA6822FA03F3FB60254BDB6F03F0070328
:101240000133FA68B2FBF3F3FB603BE02148FFF7A0
:1012500023FDF8601E4B9B6E03F00303FA6822FA2D
:1012600003F3FB602EE01C48FFF716FDF86029E051
:101270001948FFF711FDF860154B1B6F03F00303CE
:10128000FA6822FA03F3FB601CE01348FFF704FD41
:10129000F8600F4B1B6F03F030031B09FA6822FA4A
:1012A00003F3FB600EE0FFF771FCF8600AE0FFF764
:1012B00015FCF86006E0FFF77FFDF86002E0002310
:1012C000FB6000BFFB6818461437BD4690BD00BFE9
:1012D00000800C400200180003001A0080B485B0A2
:1012E00000AF78600123FB737B6803F00F03BB60E2
:1012F000BB68013B062B00F2958001A252F823F057
:101300001D130000531300008F130000251400006C
:1013100025140000CB130000F1130000464BDB6ADC
:1013200003F47053B3F5805F09D0B3F5005F03D0C9
:10133000B3F5006F06D008E00223FB7308E0032337
:10134000FB7305E00423FB7302E00523FB7300BF7E
:101350006BE0394B9B6A03F00303022B06D0032B8F
:1013600007D0012B08D10323FB730FE00223FB738B
:101370000CE00623FB7309E02F4B9B6A03F48033D8
:10138000002B02D00923FB7300E000BF4DE02A4B85
:101390009B6A03F00C03082B06D00C2B07D0042B00
:1013A00008D10323FB730FE00223FB730CE0062339
:1013B000FB7309E0204B9B6A03F48013002B02D0DF
:1013C0000923FB7300E000BF2FE00723FB731A4BD8
:1013D0001B6803F08053002B03D0B3F1805F03D070
:1013E00023E00723FB7302E00823FB7300BF1CE02C
:1013F000114BDB6A03F46033B3F5803F08D0B3F5DB
:10140000003F08D0B3F5004F08D10823FB7308E074
:101410000223FB7305E00323FB7302E00123FB734C
:1014200000BF02E00023FB7300BFFB7B18461437AC
:10143000BD465DF8047B704700800C4080B588B0E5
:1014400000AF78600B46FB700323FB610323FB7640
:1014500000233B617B6803F00F03FB60FB68013BEB
:10146000062B00F2218101A252F823F0891400001A
:101470005315000053150000A9160000A91600001E
:101480001716000041160000FB78023B072B00F204
:101490000F8101A252F823F0B9140000C314000018
:1014A000CD14000009150000B1160000B1160000AF
:1014B000B1160000B11600000423FB610023FB7687
:1014C0002BE00323FB610123FB7626E00223FB6173
:1014D0000223FB7679487A49FFF7CCFA03F0F6FB52
:1014E0000246784B9A4206D9774B774A126842F007
:1014F00060021A6011E0744B734A126822F06002B5
:1015000042F020021A6008E00123FB610323FB760E
:101510006A486B49FFF7AEFA00BFFB7E184601210F
:10152000012200F0F5F8FFF7ADFB674BFA695A624C
:101530006648FFF7E7FD034618466149FFF79AFA48
:1015400000F058FA03F01EFBB860B868FFF73EFBE6
:10155000ABE0FB78013B082B00F2AC8001A252F813
:1015600023F000BF891500008F1500009F150000B3
:10157000B5160000B5160000AF150000B516000046
:10158000B5160000CD15000000237B6123E000208C
:101590000121012200F0BCF802237B611BE0012045
:1015A0000121012200F0B4F801237B6113E003F074
:1015B000E9FAB860B8684249FFF75CFA4448042188
:1015C0000122FFF703FA03237B6104E000237B6120
:1015D00001233B6100BFFB68022B0DD13A4A3A4B15
:1015E0009B6A23F4803323F00303796919433B6931
:1015F0001B040B43936258E0334A334B9B6A23F43A
:10160000801323F00C037969890019433B691B059A
:101610000B43936249E0FB78072B02D0082B07D0DD
:1016200049E0294B284A126822F080521A6006E0ED
:10163000254B254A126842F080521A6000BF34E000
:10164000FB78032B14D0082B22D0022B00D032E0E1
:1016500000200121012200F05BF81B4B40225A625E
:1016600000BF194BDB6A03F48033002BF9D01AE07A
:1016700001200121012200F04BF8134B60225A6235
:1016800000BF114BDB6A03F40033002BF9D00AE0F2
:101690000D4B20225A6200BF0B4BDB6A03F4004360
:1016A000002BF9D000BF00E000BFFFF701FA02E015
:1016B00000BF00E000BF2037BD4680BD01366E018F
:1016C00000366E010048E80100800C400043020033
:1016D00040800C4080B483B000AF78600B4B9B6DB2
:1016E00003F00803002B00D00BE07B6803F0070336
:1016F0007B60064B054AD26F22F007017A680A43E5
:10170000DA670C37BD465DF8047B704700800C40FB
:1017100080B586B000AF13460246FA710A46BA7128
:101720007B71FB79042B4AD801A252F823F000BF49
:101730007D1700006F1700005317000045170000C9
:101740006117000001233B610223FB6001237B61E1
:101750001DE004233B610823FB6003237B6116E04B
:1017600010233B612023FB6005237B610FE04023B6
:101770003B618023FB6007237B6108E04FF48073AB
:101780003B614FF40073FB6009237B6100BFBB79B1
:10179000002B0ED00C4B3A691A627B79002B0BD0D0
:1017A00000BF0A487969FFF727F90346002BF8D0F4
:1017B00002E0054BFA681A6200F01CF900E000BF75
:1017C0001837BD4680BD00BF00800C402C800C4007
:1017D00080B500AF03F0D6F980BD00BF80B400AF84
:1017E000034B0022C3F88420BD465DF8047B70479C
:1017F00000800C4080B400AF044B45F60E02C3F8E5
:101800008420BD465DF8047B704700BF00800C401B
:1018100080B582B000AF384BD3F8843003F00103B9
:101820007B60FFF7E7FF00233B60344B1B6803F04E
:1018300001033A6813433B60304B1B6803F010030D
:101840003A6813433B602D4B1B6803F040033A6832
:1018500013433B60294B1B6803F004033A681343AE
:101860003B60264B1B6803F480733A6813433B606C
:10187000214B3A681A62214B1B6803F47053B3F58D
:10188000805F06D0B3F5005F0ED0B3F5006F16D0C1
:1018900020E000BF184BDB6A03F08003002BF9D077
:1018A000154B03225A6215E000BF134BDB6A03F4A9
:1018B0000073002BF9D0104B04225A620AE000BFDB
:1018C0000D4BDB6A03F00803002BF9D00A4B022210
:1018D0005A6200BF094B1B6803F00103002B02D1C1
:1018E000054B02221A627B68002B01D0FFF776FFBE
:1018F0000837BD4680BD00BF00800C4008010020B5
:1019000080B483B000AF134B1B699BB203F03F035D
:101910009BB21B02FB800F4B9B699BB203F0F00351
:101920009AB2FB881343FB800A4BDB6903F0F00398
:101930001B099AB2FB881343FB80FB88B3F5807FB9
:1019400014BF00230123DBB218460C37BD465DF8F7
:10195000047B7047D0FF0FE080B586B000AF034630
:10196000FB711F4BDA6A1F4B1A601F4B1E4A12692C
:1019700042F004021A61FFF7C3FF0346FB75FB7DCB
:10198000002B11D0194B1A68194B1340FB60174BF1
:10199000FA68C3F88020154B5B6823F046033B616F
:1019A000124B3A69C3F8842030BFFB7D002B05D071
:1019B0000E4BFA681A600D4B3A695A60FB79002B9E
:1019C00002D0FFF725FF07E0064B1B6803F4806396
:1019D000002B01D1FFF7FCFE1837BD4680BD00BFCC
:1019E00000800C400801002000ED00E000E100E074
:1019F0009CF1FD0080B400AF034BDA6A034B1A6020
:101A0000BD465DF8047B704700800C400801002053
:101A100080B487B000AFF860B9607A60FB6803F10A
:101A20000473DA00BB6813449B007B617B697A68AE
:101A30001A601C37BD465DF8047B704780B485B0E2
:101A400000AFF860B9607A60FB681A68BB68DB4376
:101A50001A407B681A43FB681A601437BD465DF86C
:101A6000047B704780B483B000AF03463960FB71DC
:101A7000FB79002B0DD0FB79012B0AD0FB79022BCF
:101A800007D0FB79032B04D0FB79042B01D0FB7921
:101A9000052B0948FA793B68012101FA03F319463D
:101AA0001346DB0013449B000344103359600C378A
:101AB000BD465DF8047B70470060004080B483B091
:101AC00000AF03463960FB71FB79002B0DD0FB7929
:101AD000012B0AD0FB79022B07D0FB79032B04D012
:101AE000FB79042B01D0FB79052B0948FA793B6877
:101AF000012101FA03F319461346DB0013449B004E
:101B00000344103319600C37BD465DF8047B704701
:101B10000060004090B482B000AF02460B46FA71FC
:101B2000BB71FB79002B0ED0FB79012B0BD0FB791D
:101B3000022B08D0FB79032B05D0FB79042B02D0B4
:101B4000FB79052B03D1BB79032B00D800BF0C48D0
:101B5000FA790B4CF9790B46DB000B449B002344CC
:101B60001B6823F00301BB7919431346DB001344C0
:101B70009B00034419600837BD4690BC704700BF06
:101B80000060004080B586B000AFB9607A60024660
:101B9000FA73BB73FB7B002B0DD0FB7B012B0AD0B0
:101BA000FB7B022B07D0FB7B032B04D0FB7B042B9E
:101BB00001D0FB7B052BBB68072B0ED8BB689B00B5
:101BC00007229A40F97BBB689B0001FA03F31A488D
:101BD00011461A46FFF732FF10E0BB68083B7B61F5
:101BE0007B699B0007229A40F97B7B699B0001FA85
:101BF00003F3124811461A46FFF720FFBB7B10483B
:101C0000B9681A46FFF704FF97F820300D48B96805
:101C10001A46FFF7FDFE0C4BBA68012101FA02F2E9
:101C2000C3F81C2197F824300848B9681A46FFF712
:101C3000EFFE1837BD4680BD0061004004610040E2
:101C4000086100400C6100400060004010610040ED
:101C500090B585B000AFB9607B600346FB73134657
:101C6000BB73FB7B002B0DD0FB7B012B0AD0FB7BD6
:101C7000022B07D0FB7B032B04D0FB7B042B01D072
:101C8000FB7B052BBB7B002B0DD07B68002B05D08D
:101C9000FB7B1846B968FFF711FF04E0FB7B184691
:101CA000B968FFF7DFFEBB68072B1DD82B48FA7B0E
:101CB0002A4CF97B0B46DB000B449B0023445968FC
:101CC000BB689B000F2404FA03F3DB431940BC7B81
:101CD000BB689B0004FA03F319431346DB0013446B
:101CE0009B000344596024E01C48FA7B1B4CF97BA1
:101CF0000B46DB000B449B00234408331968BB6888
:101D000003F18043083B9B000F2404FA03F3DB43F9
:101D10001940BC7BBB6803F18043083B9B0004FA7D
:101D200003F319431346DB0013449B0003440833B9
:101D30001960BB7B002B0DD17B68002B05D0FB7B92
:101D40001846B968FFF7BAFE04E0FB7B1846B9688D
:101D5000FFF788FE1437BD4690BD00BF006000400D
:101D600080B483B000AF0346FB71FB79002B06D033
:101D7000084B084A126842F001021A6005E0054B60
:101D8000044A126822F001021A600C37BD465DF861
:101D9000047B704700A0084080B487B000AFF860B3
:101DA000B9607A60FB6803F10473DA00BB6813441E
:101DB0009B007B617B697A681A601C37BD465DF8C1
:101DC000047B704780B584B000AF7860184B5B68C7
:101DD000FB600020FFF7C4FFFB6823F4830323F0BC
:101DE0001F03FB607B685B68FA681343FB607B68DA
:101DF0001B7AFA681343FB607B685B7AFA681343CB
:101E0000FB607B68DB68FA681343FB607B681B8AB6
:101E1000FA681343FB60064BFA685A607B681B78CC
:101E2000002B02D00120FFF79BFF1037BD4680BD7D
:101E300000A0084080B485B000AF78600D4B5B68AF
:101E4000FB60FB6823F48033FB607B68002B08D0C9
:101E5000B3F5803F00D005E0FB6843F48033FB60BE
:101E600000E000BF034BFA685A601437BD465DF8C6
:101E7000047B704700A0084080B483B000AF0246E6
:101E80000B46FA807B717B79002B06D0094B094AFF
:101E90009168FA880A439A6006E0064B054A916801
:101EA000FA88D2430A409A600C37BD465DF8047B3D
:101EB000704700BF00A0084080B584B000AFF86054
:101EC000B9601346FB71FB68072B00F2C38001A2C7
:101ED00052F823F0F51E0000211F00004D1F0000E6
:101EE000791F0000A51F0000D11F0000FD1F00008A
:101EF00029200000BB681F2B07DCBA68FB79574814
:101F000011461A46FFF748FFA5E0BB68203BBB60BF
:101F1000BA68FB79524811461A46FFF73DFF9AE02E
:101F2000BB681F2B07DCBA68FB794E4811461A467E
:101F3000FFF732FF8FE0BB68203BBB60BA68FB79DC
:101F4000494811461A46FFF727FF84E0BB681F2B5C
:101F500007DCBA68FB79454811461A46FFF71CFFB3
:101F600079E0BB68203BBB60BA68FB79404811460A
:101F70001A46FFF711FF6EE0BB681F2B07DCBA683B
:101F8000FB793C4811461A46FFF706FF63E0BB6841
:101F9000203BBB60BA68FB79374811461A46FFF709
:101FA000FBFE58E0BB681F2B07DCBA68FB7933489F
:101FB00011461A46FFF7F0FE4DE0BB68203BBB60C0
:101FC000BA68FB792E4811461A46FFF7E5FE42E053
:101FD000BB681F2B07DCBA68FB792A4811461A46F2
:101FE000FFF7DAFE37E0BB68203BBB60BA68FB79DD
:101FF000254811461A46FFF7CFFE2CE0BB681F2B81
:1020000007DCBA68FB79214811461A46FFF7C4FE7F
:1020100021E0BB68203BBB60BA68FB791C481146D5
:102020001A46FFF7B9FE16E0BB681F2B07DCBA683B
:10203000FB79184811461A46FFF7AEFE0BE0BB6865
:10204000203BBB60BA68FB79134811461A46FFF77C
:10205000A3FE00E000BF1037BD4680BD40A0084091
:1020600050A0084044A0084054A0084048A00840A0
:1020700058A008404CA008405CA00840CCA00840F4
:10208000B4A00840D0A00840B8A00840D4A00840A0
:10209000BCA00840D8A00840C0A0084080B487B0C9
:1020A00000AFF860B9607A60FB68072B00F2AC8083
:1020B00001A252F823F000BFD9200000FD2000004B
:1020C000212100004521000069210000912100002C
:1020D000B9210000E12100004E4B1B6C7B61BB6805
:1020E000DB437A6913407B61BA687B6813407A6985
:1020F00013437B61474B7A691A6486E0454B5B6CFE
:102100007B61BB68DB437A6913407B61BA687B689B
:1021100013407A6913437B613E4B7A695A6474E0D9
:102120003C4B9B6C7B61BB68DB437A6913407B61F2
:10213000BA687B6813407A6913437B61354B7A69CF
:102140009A6462E0334BDB6C7B61BB68DB437A698A
:1021500013407B61BA687B6813407A6913437B61E3
:102160002C4B7A69DA6450E02A4BD3F8CC307B618F
:10217000BB68DB437A6913407B61BA687B681340B4
:102180007A6913437B61234B7A69C3F8CC203CE026
:10219000204BD3F8D0307B61BB68DB437A691340B6
:1021A0007B61BA687B6813407A6913437B61194B82
:1021B0007A69C3F8D02028E0164BD3F8D4307B617D
:1021C000BB68DB437A6913407B61BA687B68134064
:1021D0007A6913437B610F4B7A69C3F8D42014E00A
:1021E0000C4BD3F8D8307B61BB68DB437A69134072
:1021F0007B61BA687B6813407A6913437B61054B46
:102200007A69C3F8D82000E000BF1C37BD465DF8EE
:10221000047B704700A0084080B487B000AFF8602E
:10222000B9607A60FB68072B00F2AC8001A252F81B
:1022300023F000BF55220000792200009D220000FB
:10224000C1220000E52200000D230000352300001C
:102250005D2300004E4B1B6D7B61BB68DB437A69DD
:1022600013407B61BA687B6813407A6913437B61D2
:10227000474B7A691A6586E0454B5B6D7B61BB68AD
:10228000DB437A6913407B61BA687B6813407A69E3
:1022900013437B613E4B7A695A6574E03C4B9B6DFE
:1022A0007B61BB68DB437A6913407B61BA687B68FA
:1022B00013407A6913437B61354B7A699A6562E012
:1022C000334BDB6D7B61BB68DB437A6913407B6119
:1022D000BA687B6813407A6913437B612C4B7A6937
:1022E000DA6550E02A4BD3F8B4307B61BB68DB433E
:1022F0007A6913407B61BA687B6813407A6913433B
:102300007B61234B7A69C3F8B4203CE0204BD3F8BF
:10231000B8307B61BB68DB437A6913407B61BA6884
:102320007B6813407A6913437B61194B7A69C3F860
:10233000B82028E0164BD3F8BC307B61BB68DB4388
:102340007A6913407B61BA687B6813407A691343EA
:102350007B610F4B7A69C3F8BC2014E00C4BD3F8B7
:10236000C0307B61BB68DB437A6913407B61BA682C
:102370007B6813407A6913437B61054B7A69C3F824
:10238000C02000E000BF1C37BD465DF8047B7047ED
:1023900000A0084080B483B000AF7860064B064AC6
:1023A000526822F4E0117A680A435A600C37BD463D
:1023B0005DF8047B704700BF00A0084080B487B080
:1023C00000AFF860B9607A60FB6803F10473DA006B
:1023D000BB6813449B007B617B697A681A601C3779
:1023E000BD465DF8047B704780B582B000AF786071
:1023F0000B46FB70FB78002B01D000F0F1FA7B68F4
:102400001B7D184600F020F9504B7A6852789100F5
:102410007A68927811437A68926811437A68D26830
:1024200011437A68D278520211437A681279920283
:1024300011437A685279520311437A6892795204AF
:1024400011437A68D279120411437A68527C92055A
:102450000A431A607B681B781846002100F0D6F802
:102460003A4B7A68127E11467A68527E9200114386
:102470007A68927E920111437A68D27E52001143AB
:102480007A68127F120111437A68527F1202114357
:102490007A68927F920211437A68126A11437A68CD
:1024A00092F82420120511437A6892F825209205AB
:1024B00011437A68926A0A439A60244B7A68928D33
:1024C00011467A6892F83B20920211437A6892F89A
:1024D0003C20920311437A6892F83D209204114304
:1024E0007A6892F83E20920511437A6892F8342077
:1024F000520011437A6892F83520920011437A68AD
:1025000092F83620D20011437A6892F837201201EF
:1025100011437A6892F83820520111437A6892F890
:102520003920920111437A6892F83A20D2010A4385
:10253000DA607B681B6B184600F0F4F9034B7A688D
:10254000127C1A610837BD4680BD00BF00C008403C
:1025500080B588B000AF786039600023FB6101234B
:10256000BB613F237B617B68002B03D12548FEF7CD
:10257000C9FD78603B68002B04D03A687B689A42BA
:1025800000D808E007E0FB690133FB61FB69012229
:1025900002FA03F3BB613B68BA6902FB03F37A6892
:1025A000B2FBF3F27B6901339A4202D9FB69062B35
:1025B000E9D93B68BA6902FB03F37A68B2FBF3F32B
:1025C000013B7B61104B5B6823F47F2323F4E063C2
:1025D0003B61FB691A027B691B0313433A6913438E
:1025E0003B61094B3A695A607B690133BA6902FB66
:1025F00003F37A68B2FBF3F3FB60FB6818462037FD
:10260000BD4680BD6006280000C0084080B584B08B
:1026100000AF02460B46FA71BB710A4B1B6823F0F0
:102620000303FB60FB79FA681343FB60054BFA6810
:102630001A60BB79002B01D000F084F91037BD4639
:1026400080BD00BF00C0084080B485B000AF034625
:10265000FB71094B5B6823F44003FB60FB799B052E
:10266000FA681343FB60044BFA685A601437BD469E
:102670005DF8047B704700BF00C0084080B485B09F
:1026800000AF02460B46FA71BB71FB79002B0FD0ED
:10269000012B00D01AE0104B5B6823F00303FB60B2
:1026A000BB79FA681343FB600B4BFA685A600DE084
:1026B000094B5B6823F07003FB60BB791B01FA6870
:1026C0001343FB60044BFA685A6000BF1437BD46E1
:1026D0005DF8047B704700BF00C0084080B584B03F
:1026E00000AF78600023FB600AE0FB685B017A685A
:1026F00013441846F96800F009F8FB680133FB60E1
:10270000FB680F2BF1D91037BD4680BD80B584B072
:1027100000AF786039607B685B68B3F5C03F0BD170
:102720003B68022B08D03B68032B05D03B68042B89
:1027300002D03B68052B00D100BF7B681B7A032BBE
:102740000BD13B680C2B08D03B680D2B05D03B68A8
:102750000E2B02D03B680F2B00D100BF7B681B7A89
:10276000032B0BD13B68002B08D03B68012B05D015
:102770003B68022B02D03B68032B00D100BF394BD2
:102780009A6B3B685B00032101FA03F3DB431340C0
:10279000FB607B681B7A1A463B685B0002FA03F316
:1027A000FA681343FB602F4BFA689A633B68D8B210
:1027B0007B68D97B7B681A7C7B685B7C00F05AF86D
:1027C00028497B685B7B5A047B689B7B9B041A438C
:1027D0007B689B8A1A437B68DB8A1A437B685B6849
:1027E0001A437B685B7ADB041A433B682C331B017A
:1027F0000B445A601B497B68DA697B689B7A5B04EF
:102800001A437B681B7B9B041A437B68DB7ADB04DF
:102810001A433B681B010B4403F532731A603B6893
:10282000D9B27B685A8A7B681B8B084611461A46C8
:1028300000F03CF87B689B780B4839681A46FFF734
:10284000BDFD7B685B78094839681A46FFF7B6FD1D
:102850007B681B78064839681A46FFF7AFFD1037CA
:10286000BD4680BD00C008404CC0084054C0084070
:1028700018C0084080B483B000AFF871B9717A71A4
:102880003B710949FB79B8797A79920110433A7919
:10289000520302432C331B010B441A600C37BD4614
:1028A0005DF8047B704700BF00C0084080B485B06D
:1028B00000AF13460246FA710A46BA807B80184A76
:1028C000FB792C331B0113445B6823F47F6323F0F3
:1028D0000F03FB60BB88FA681343FB60104AFB7967
:1028E0002C331B011344FA685A600D4AFB791B0113
:1028F000134403F532731B681B0C1B04FB607B88BD
:10290000FA681343FB60064AFB791B01134403F585
:102910003273FA681A601437BD465DF8047B70475D
:1029200000C0084080B483B000AF7860044B7A6880
:1029300002F00F021A630C37BD465DF8047B704746
:1029400000C0084080B400AF00BF0A4B1B6D03F00D
:102950002003002BF9D1074B01225A6100BF054B20
:102960001B6D03F02003002BF9D1BD465DF8047BFD
:10297000704700BF00C0084080B400AF00BF0A4BE2
:102980001B6D03F02003002BF9D1074B02225A6183
:1029900000BF054B1B6D03F02003002BF9D1BD4692
:1029A0005DF8047B704700BF00C0084080B400AFF2
:1029B00000BF0A4B1B6D03F02003002BF9D1074B1E
:1029C00008225A6100BF054B1B6D03F02003002B4A
:1029D000F9D1BD465DF8047B704700BF00C00840D8
:1029E00080B483B000AF374B0022DA64354B364AEF
:1029F0005A64344B334AD26842F00102DA6000BFB5
:102A0000304B1B6D03F02003002BF9D12D4B0A2214
:102A10005A612C4B00221A602A4B00229A60294BE3
:102A20000022DA60274B00221A61264B00229A61AD
:102A3000244B00229A63234B0022DA63214B0022AD
:102A40005A6500237B6018E01E4A7B682C331B010B
:102A5000134400221A601B4A7B682C331B01134469
:102A600000225A60174A7B681B01134403F5327336
:102A700000221A607B6801337B607B680F2BE3D9EF
:102A800000237B600FE00F4B7A684032002143F84F
:102A900032100C4A7B684033DB00134400225A603A
:102AA0007B6801337B607B680F2BECD900BF054B43
:102AB0001B6D03F02003002BF9D10C37BD465DF8E8
:102AC000047B704700C00840FFFF7F0080B487B0E0
:102AD00000AFF860B9607A60FB6803F10473DA0054
:102AE000BB6813449B007B617B697A681A601C3762
:102AF000BD465DF8047B704780B485B000AF786058
:102B00007B68002B02D0012B04D007E0084B9B68A8
:102B1000FB6006E0064BDB68FB6002E00023FB6025
:102B200000BFFB6818461437BD465DF8047B70474C
:102B30000000084080B485B000AF786039607B68E1
:102B4000012B05D83B6803F07F43002B00D100BF69
:102B50007B68002B02D0012B03D008E0064BFB6002
:102B600002E0064BFB6000BFFB683A681A6014374E
:102B7000BD465DF8047B7047080008400C00084023
:102B800080B582B000AF0346FB71FB79034800219A
:102B90001A46FFF79BFF0837BD4680BD000008407E
:102BA00080B485B000AF78607B681B78002B02D0C2
:102BB0000123FB6001E00023FB607B685B78002B56
:102BC00003D0FB6843F00203FB607B689B78002B1B
:102BD00003D0FB6843F00403FB60044BFA681A60FF
:102BE0001437BD465DF8047B704700BF0000084005
:102BF00080B500AF0020FFF7C3FF0120FFF7C0FF43
:102C000080BD00BF80B400AF4FF080439B6803F0ED
:102C10000103002B01D0012300E000231846BD462C
:102C20005DF8047B704700BF80B483B000AF78606C
:102C30004FF080437A689A610C37BD465DF8047B9B
:102C4000704700BF80B582B000AF78607B68DB68FA
:102C5000002B03D07B68DB68012B00D100BF7B68B1
:102C60005B68002B04DB7B685B680F2B00DC00BF1C
:102C70007B681B78002B08D04FF080434FF08042D8
:102C8000126842F080421A6007E04FF080434FF034
:102C90008042126822F080421A604FF080434FF069
:102CA0008042126822F070621A604FF080434FF049
:102CB000804211687A68526812060A431A607B687B
:102CC0001B7A002B08D04FF080434FF080421268EF
:102CD00042F400321A6007E04FF080434FF0804228
:102CE000126822F400321A607B685B7A002B08D0ED
:102CF0004FF080434FF08042126842F480321A60F5
:102D000007E04FF080434FF08042126822F4803297
:102D10001A604FF080434FF08042126822F4E06264
:102D20001A604FF080434FF0804211687A68927ABF
:102D300012020A431A607B68DB7A002B0BD0012B4E
:102D400000D011E04FF080434FF08042126842F013
:102D500010021A6008E04FF080434FF08042126882
:102D600022F010021A6000BF4FF080434FF0804203
:102D700011687A68D26892000A431A607B685B69BE
:102D8000184600F04FF87B681B7E002B08D04FF0F0
:102D900080434FF08042126842F001021A6007E05F
:102DA0004FF080434FF08042126822F001021A6017
:102DB0007B681B7C002B11D07B681B7E002B0DD009
:102DC00000BFFFF71FFF034683F00103DBB2002BB8
:102DD000F7D17B681B7C184600F006F80120FFF74E
:102DE00023FF0837BD4680BD80B483B000AF0346E3
:102DF000FB71FB79002B08D04FF080434FF08042ED
:102E0000526842F480725A6007E04FF080434FF0FE
:102E10008042526822F480725A600C37BD465DF8D9
:102E2000047B704780B483B000AF78607B68002B70
:102E300003DD7B683F2B00DC00BF4FF080434FF089
:102E40008042526822F03F017A680A435A600C3788
:102E5000BD465DF8047B704780B483B000AF034685
:102E6000FB71084B97F907205209F97901F01F010E
:102E7000012000FA01F143F822100C37BD465DF83D
:102E8000047B704700E100E080B500AF01F07AFEFE
:102E900080BD00BF80B400AF72B6084B1B68B3F1B1
:102EA000FF3F04D0054B1B685A1C044B1A60034BB0
:102EB0001B681846BD465DF8047B70470C01002076
:102EC00080B483B000AF0C4B1B68002B0DD00A4BB5
:102ED0001B685A1E084B1A60074B1B687B607B6897
:102EE000002B00D162B67B6800E0002318460C3747
:102EF000BD465DF8047B70470C01002080B400AF34
:102F0000034B1B6A1846BD465DF8047B704700BF43
:102F100000C0084080B400AF034B9B6A1846BD4612
:102F20005DF8047B704700BF00C0084080B483B0E8
:102F300000AF7860064B7A6802F00F02A03253F8B7
:102F4000223018460C37BD465DF8047B704700BF41
:102F500000C0084080B483B000AF7860034B7A684B
:102F60005A640C37BD465DF8047B704700C00840CA
:102F700080B483B000AF7860054B054AD16C7A68A5
:102F80000A43DA640C37BD465DF8047B704700BF26
:102F900000C0084080B483B000AF7860054B054A9C
:102FA000D16C7A68D2430A40DA640C37BD465DF8CA
:102FB000047B704700C0084080B483B000AF064B6C
:102FC000DB6C7B60044B1A6C7B68134018460C3733
:102FD000BD465DF8047B704700C0084080B500AF77
:102FE000FFF752FF11200521FEF728FA12480321AE
:102FF000FEF724FA11480121FEF720FA10480121BA
:10300000FEF716F80F480121FEF712F80E480121CD
:10301000FEF70EF80D480121FEF70AF80C480121D1
:10302000FEF706F80B480121FEF702F809480121D6
:10303000FDF7E8FE80BD00BF0200180003001A0083
:103040004081040000D204000092040000A20400A9
:10305000004302006006280080B500AF0220002176
:10306000FEF758FD0220082100220023FEF7F0FDA4
:103070000220092100220023FEF7EAFD02200A2196
:1030800000220023FEF7E4FD02200B210022002392
:10309000FEF7DEFD80BD00BF80B500AF0A4800210D
:1030A00000220023FDF76CFC0848002100220023C9
:1030B000FDF766FC04480649FDF71CFC034804497B
:1030C000FDF718FC80BD00BF001000400014004058
:1030D000305E000090B585B000AF0346FB715B4BDE
:1030E0001B78002B03D05A480121FFF77DF9FB79AB
:1030F000002B37D0FFF740FC00BFFFF7FFFE034671
:1031000003F01003002BF8D1FFF750FC002004213E
:10311000FFF71EFA00200021FFF7B0FA4D48FFF735
:10312000DDFA4D4B1B88082037211A46FFF7BEFBFE
:10313000494B5B88092037211A46FFF7B7FB464BFE
:103140009B880A2037211A46FFF7B0FB424BDB88E9
:103150000B2037211A46FFF7A9FB4FF48030FFF709
:1031600019FF1EE0FFF708FC00BFFFF7C7FE03468C
:1031700003F01003002BF8D14FF48030FFF7EAFE84
:10318000FFF714FC00204021FFF7E2F900200321A3
:10319000FFF774FA3148FFF7A1FA4FF48030FFF7D8
:1031A000E7FE1120FFF758FEFFF7CCFB274B1B78FB
:1031B000002B47D0254B00221A7000BF284B1B6AFA
:1031C00003F00203002BF9D00023FB730023BB7331
:1031D00019E0BB7B234AD35C002B11D0FB7B002B77
:1031E0000BD1FC7BBB7B1846FFF7A0FE03469BB2CE
:1031F000013B9AB2184B23F81420FB7B0133FB737D
:10320000BB7B0133BB73BB7B0F2BE2D9124B1B88FB
:10321000082037211A46FFF749FB0F4B5B8809202E
:1032200037211A46FFF742FB0B4B9B880A203721B8
:103230001A46FFF73BFB084BDB880B2037211A4669
:10324000FFF734FB1437BD4690BD00BF4C00002093
:10325000445E0000845E00005C0100208460000089
:1032600000C00840F45D000080B483B000AF786017
:103270003960054B7A681A60044B3A681A600C375B
:10328000BD465DF8047B70475001002054010020CA
:1032900080B582B000AFFFF78FFE034603F48033A2
:1032A000002B42D04FF48030FFF754FE294B002210
:1032B0001A702EE0274B1B78DBB2274AD35C83F0D1
:1032C0000103DBB2002B00D01CE0FFF723FE786087
:1032D000204B1B78DBB21A46204B796843F822104A
:1032E0001C4B1B78DBB21A461D4B53F822207B681F
:1032F0009A4207D2174B1B78DBB21A46184B7968F3
:1033000043F82210134B1B78DBB20133DAB2114BB6
:103310001A70104B1B78DBB20F2BCBD9114B1B68EB
:10332000002B02D00F4B1B689847FFF745FE034662
:1033300003F48073002B0AD04FF48070FFF70AFE6D
:10334000094B1B68002B02D0074B1B6898470837B6
:10335000BD4680BD58010020F45D00001001002032
:103360000C000020500100205401002080B485B0E2
:1033700000AF0346FB71FB79012B06D0022B07D06F
:10338000002B08D10823FB7308E00823FB7305E03A
:103390000823FB7302E00823FB7300BFFB7B184686
:1033A0001437BD465DF8047B704700BF80B485B01C
:1033B00000AF0346FB71FA79084B53F82230FB60EB
:1033C000FA79074B53F822301A02FB68B2FBF3F389
:1033D00018461437BD465DF8047B70470C0000208A
:1033E00010010020B0B491B000AF4FF0FF33BB63C9
:1033F000EC237B634F4B07F118041D460FCD0FC420
:1034000095E8030084E803004B4B3C1D1D460FCD9F
:103410000FC42B6823600123FB6344E0FB6B9B001C
:1034200007F14000034453F83C3C5A1E434B53F809
:1034300022301A02FB6B9B0007F140010B4443F85A
:10344000282CFB6B9B0007F14002134453F8282CF7
:10345000FB6B9B0007F14000034453F83C3C591EB2
:10346000374B53F82130B2FBF3F2FB6B9B0007F1B3
:1034700040010B4443F8282CFB6B9B0007F14002F2
:10348000134453F8282C7B6B9A4209D2FB6B9B00A8
:1034900007F14000034453F8283C7B63FB6BBB639C
:1034A000FB6B0133FB63FB6B012BB7DDBB6BB3F134
:1034B000FF3F02D14FF0FF3336E0BB6B013B1B01F6
:1034C0003B633A6BBB6B013B9B0007F140010B4434
:1034D00053F8283CC3F58073D900BB6B9B0007F100
:1034E0004000034453F8283CC3F58073B1FBF3F369
:1034F000D31A3B63BB6B01339B0007F140010B44C4
:1035000053F8283CC3F58073DA00BB6B9B0007F1CE
:103510004000034453F8283CC3F58073B2FBF3F238
:103520003B6B13443B633B6B18464437BD46B0BC12
:10353000704700BF045E00001C5E00001001002008
:103540000C00002080B500AF0120FEF705FA80BD19
:1035500080B582B000AF0346FB71FFF79BFCFFF71D
:103560003DFDFFF779FDFFF797FDFB791846FFF763
:10357000B1FDFFF7A5FC0837BD4680BD80B586B01C
:1035800000AFF860B9607A60FB70BB68002B03D1B4
:103590002448FDF7B7FDB860FB78202B0CD0202B1A
:1035A00002DC002B05D03AE0402B08D0602B09D07C
:1035B00035E010237B6108E008237B6105E00623EA
:1035C0007B6102E004237B6100BFBB689A007B69DA
:1035D000796801FB03F35B0813443B617B697A68FC
:1035E00002FB03F33A69B2FBF3F33B613B69043B33
:1035F0003B613B699B013B613A690B4B13403B616B
:10360000FB681B6823F06002FB681A60FB681A689D
:10361000FB781A43FB681A60FB683A695A611837ED
:10362000BD4680BD40810400C0FF1F0080B582B050
:1036300000AF786039607A68244B9A420FD07A687C
:10364000234B9A420BD07A68224B9A4207D07A6871
:10365000214B9A4203D07A68204B9A4200D100BF96
:10366000786800F06DF83B689B7C002B05D07B6888
:103670001B6843F080427B681A603B68DB7C002B50
:1036800007D03B681B7D43F01003DBB21A467B6812
:103690009A653B685B7B1A463B681B8A1A433B680A
:1036A000DB891A437B685A603B6859683B689A68B3
:1036B0003B681B7B7868FFF761FF3B681B781A4605
:1036C0007B68DA600837BD4680BD00BF00C000409F
:1036D00000C4004000C8004000E0004000E400409A
:1036E00080B485B000AF786039607B689B6823F058
:1036F0007703FB603B681B78002B03D0FB6843F02B
:103700004003FB603B689B78002B03D0FB6843F0D1
:103710002003FB603B685B78002B03D0FB6843F021
:103720001003FB603B68DB78FA681343FB607B683F
:10373000FA689A601437BD465DF8047B704700BF95
:1037400080B483B000AF78607A68244B9A420FD07F
:103750007A68234B9A420BD07A68224B9A4207D060
:103760007A68214B9A4203D07A68204B9A4200D162
:1037700000BF7B6840F6AA62DA607B6800221A60AC
:103780007B6841F205025A607B6800229A607B6880
:1037900000225A617B680022DA647B6841F6F97284
:1037A0009A647B6800225A657A680C4B9A4202D16F
:1037B0007B6800221A657B6800229A657A68084B4C
:1037C0009A4203D07A68074B9A4202D17B68002262
:1037D000DA650C37BD465DF8047B704700C00040D9
:1037E00000C4004000C8004000E0004000E4004089
:1037F00080B483B000AF786000BF7B681B6903F0C2
:103800008003002BF9D07B68DB69DBB218460C37EC
:10381000BD465DF8047B704780B483B000AF78602C
:103820000B46FB7000BF7B681B6903F04003002B55
:10383000F9D0FA787B685A630C37BD465DF8047B93
:10384000704700BF98B500AF164B1B6903F08003AB
:10385000002B26D0144B1C681248FFF7C9FF034603
:103860001A46124B1A55104B1B685A1C0E4B1A6005
:103870000F4B1B685A1C0E4B1A600B4B1B68082B16
:1038800002D1094B00221A60094B1B68082B08DD86
:10389000054B00221A60064B00221A60054B0022DD
:1038A0001A6098BD00C4004068010020700100202B
:1038B0006C0100206401002080B483B000AF034697
:1038C000FB71084B97F907205209F97901F01F01A4
:1038D000012000FA01F143F822100C37BD465DF8D3
:1038E000047B704700E100E080B483B000AF034682
:1038F000FB71094B97F907205209F97901F01F0173
:10390000012000FA01F1603243F822100C37BD4665
:103910005DF8047B704700BF00E100E080B400AFB9
:1039200072B6084B1B68B3F1FF3F04D0054B1B6810
:103930005A1C044B1A60034B1B681846BD465DF8C1
:10394000047B70470C01002080B483B000AF0C4BA7
:103950001B68002B0DD00A4B1B685A1E084B1A60BF
:10396000074B1B687B607B68002B00D162B67B68CD
:1039700000E0002318460C37BD465DF8047B704715
:103980000C01002080B400AF034B5B681846BD46B5
:103990005DF8047B704700BF0000084080B483B02E
:1039A00000AF7860034B7A689A610C37BD465DF8CA
:1039B000047B70470000084080B483B000AF78609B
:1039C000054B054AD1697A68D2430A40DA610C375F
:1039D000BD465DF8047B70470000084080B483B0AA
:1039E00000AF7860054B054AD1697A680A43DA610D
:1039F0000C37BD465DF8047B704700BF00000840EF
:103A000080B400AF034B1B691846BD465DF8047BCC
:103A1000704700BF0000084080B584B000AF7860F8
:103A20000023FB600023BB60FFF778FF02E0FB6828
:103A30000133FB60FB68002B0ADC1649FA68134669
:103A40009B001344DB000B4418339B79002BEED111
:103A5000FB68012B02D1104BBB6014E07B68002B8C
:103A60000FD00C49FA6813469B001344DB000B444B
:103A7000183301229A71FA687B681A600023BB60D0
:103A800001E0064BBB60FFF75FFFBB6818461037CD
:103A9000BD4680BD78010020011000F0041000F048
:103AA00080B500AF1D4B1B78002B01D0002332E006
:103AB0001A4B01221A701A480121FDF7B9FA194868
:103AC0000221FDF7BBFC18480821FDF79BF91648B9
:103AD0000121FDF7ADFA1548FFF762F80720FFF75F
:103AE0006BFF0720FFF75AFFFFF782F81E20FFF752
:103AF000FBFE1E20FFF7E0FE0D480021282201F00A
:103B0000D3FC0C4B00221A700B4B00221A700B4B8B
:103B100000221A600023184680BD00BFAA010020C1
:103B200000430200020018006016100084620000CA
:103B300078010020A8010020A9010020A401002094
:103B4000B0B58EB000AFF8607A603B600B46FB7298
:103B50000023FB62FB68002B01D08B4B86E1FFF753
:103B6000DDFE8A49FA6813469B001344DB000B44D0
:103B700018339B7983F00103DBB2002B03D0FFF7EE
:103B8000E3FE834B72E17B68002B0AD13B68002B7C
:103B900003D03B68F868B96C9847FFF7D5FE00235F
:103BA00064E1FFF7EFFE38637849FA6813469B003B
:103BB0001344DB000B4418333A681A607B681A46DA
:103BC0004FF00003DD0345EA5245D40314F57A6251
:103BD00045F10003104619464FF4FA524FF0000326
:103BE00001F04EF902460B4610461946674CFA683A
:103BF00013469B001344DB0023440833C3E9000150
:103C0000FB7A012B28D17B684FF47A7202FB03F117
:103C10005E48FA6813469B001344DB0003440833F4
:103C2000D3E900231346F42202FB03F3CB1A19460F
:103C30005648FA6813469B001344DB0003441033D4
:103C400019605249FA6813469B001344DB000B4489
:103C500010337A225A6017E04C49FA6813469B00E9
:103C60001344DB000B440833D3E9002312F1FF3087
:103C700043F1FF31454CFA6813469B001344DB00C7
:103C800023440833C3E900014049FA6813469B0006
:103C90001344DB000B440833D3E90023501C43F1E9
:103CA00000013A4CFA6813469B001344DB0023449E
:103CB000C3E900013549FA6813469B001344DB0051
:103CC0000B44183301221A713049FA6813469B00DD
:103CD0001344DB000B441833FA7ADA712B49FA6883
:103CE00013469B001344DB000B442033BA6C1A606C
:103CF000284B1B78002B03D0FFF726FE0023B5E0EE
:103D0000254B1B68B3F1FF3F04D0234B1B685A1CA3
:103D1000214B1A60214B1B7883F00103DBB2002B8F
:103D200042D03B6B23F07F421D4B1A600220FFF70D
:103D300035FE1649FA6813469B001344DB000B441A
:103D4000D3E90023C7E90823164BFB61FB691A4638
:103D50004FF00003D7E90801994208BF904201D211
:103D600002460B461346BB613A6BBB69134423F012
:103D70007F4300201946FEF7DDFE0220FFF72EFEEE
:103D8000064B01221A7065E0021000F07801002055
:103D9000031000F0A8010020A4010020A9010020C8
:103DA000A00100209BFFFF00324B1B68012B51D16B
:103DB0003149FA6813469B001344DB000B44183367
:103DC00000221A710220FFF7F7FD3B6B1A022B4B02
:103DD0001B681B02D31A1B0A7B637A6B6FF07F434D
:103DE0009A4201D100237B63786B00F09DF800F0CC
:103DF000EFF9FB6A002B09D11F49FA6813469B00B3
:103E00001344DB000B44183301221A71FB6A01339F
:103E1000FB62386B00F00EFAFFF7B4FD38633B6BC2
:103E20001A02164B1B681B02D31A1B0A7B63002065
:103E3000FEF762FE03461A02104B1B681B02D31AE0
:103E40001B0A7B610E4B1B78002B03D07A6B7B69BE
:103E50009A42B7D8074B1B68002B04D0054B1B6850
:103E60005A1E044B1A60FFF76FFD002318463837BF
:103E7000BD46B0BDA401002078010020A0010020B3
:103E8000A901002080B584B000AFFFF747FDFFF720
:103E9000B7FDB860BB6803F00203002B39D01F4B9D
:103EA00001221A70FFF76EFDF8600220FFF784FD13
:103EB000FB681A021A4B1B681B02D31A1B0A7B6091
:103EC000786800F031F800F083F9F86800F0B2F992
:103ED000FFF758FDF860FB681A02114B1B681B02C4
:103EE000D31A1B0A7B600020FEF706FE03461A0267
:103EF0000B4B1B681B02D31A1B0A3B60094B1B7838
:103F0000002B03D07A683B689A42CED8034B00223C
:103F10001A70FFF719FD1037BD4680BDA8010020BB
:103F2000A0010020A901002090B484B000AF786007
:103F30000023FB6041E1A549FA6813469B00134446
:103F4000DB000B44183300225A71A049FA6813466B
:103F50009B001344DB000B4418331B79002B00F04B
:103F600029819A49FA6813469B001344DB000B44ED
:103F7000D3E90023796808464FF00001994208BF51
:103F8000904219D29149FA6813469B001344DB0012
:103F90000B44D3E900017B681A464FF00003801AF6
:103FA00061EB0301894CFA6813469B001344DB0064
:103FB0002344C3E90001FDE08449FA6813469B00ED
:103FC0001344DB000B441833DB79002B0AD17F4903
:103FD000FA6813469B001344DB000B44183300229D
:103FE0001A71D2E07949FA6813469B001344DB004A
:103FF0000B440833D3E900017B681A464FF00003F5
:10400000801A61EB0301714CFA6813469B0013445C
:10401000DB002344D3E90023801841EB03016B4C00
:10402000FA6813469B001344DB002344C3E90001F4
:104030006649FA6813469B001344DB000B441033B7
:104040001B68002B50DD6149FA6813469B0013443E
:10405000DB000B44103359685C48FA6813469B0038
:104060001344DB00034410331B6819445748FA68B3
:1040700013469B001344DB0003441033596053493B
:10408000FA6813469B001344DB000B4410335B6853
:10409000F32B7AD94D49FA6813469B001344DB0091
:1040A0000B44D3E90023501C43F10001474CFA684C
:1040B00013469B001344DB002344C3E9000143493A
:1040C000FA6813469B001344DB000B4410335B6813
:1040D000A3F1F4013D48FA6813469B001344DB004A
:1040E00003441033596050E03849FA6813469B0086
:1040F0001344DB000B44103359683448FA68134604
:104100009B001344DB00034410331B68C91A2F487B
:10411000FA6813469B001344DB00034410335960D4
:104120002A49FA6813469B001344DB000B44103302
:104130005B68F32B29D92549FA6813469B00134481
:10414000DB000B44D3E9002312F1FF3043F1FF31D0
:104150001E4CFA6813469B001344DB002344C3E95A
:1041600000011A49FA6813469B001344DB000B4414
:1041700010335B68A3F1F4011448FA6813469B00FE
:104180001344DB000344103359601049FA681346A6
:104190009B001344DB000B4418331B68002B09D031
:1041A0000A49FA6813469B001344DB000B4418339A
:1041B00001225A71FB680133FB60FB68002B7FF71B
:1041C000BAAE1037BD4690BC704700BF78010020E2
:1041D00090B583B000AF00237B6023E014497A6878
:1041E00013469B001344DB000B4418335B79002B10
:1041F00015D00F497A6813469B001344DB000B442B
:1042000018331C6879680A487A6813469B0013447F
:10421000DB00034420331B6808461946A0477B682F
:1042200001337B607B68002BD8DD0C37BD4690BD29
:104230007801002080B58AB000AF78604FF0FF327F
:104240004FF0FF33C7E9062300237B6227E037499D
:104250007A6A13469B001344DB000B4418331B7926
:10426000002B19D031497A6A13469B001344DB00B6
:104270000B44D3E90001D7E90623994208BF9042D5
:104280000AD22A497A6A13469B001344DB000B4486
:10429000D3E90023C7E906237B6A01337B627B6A8B
:1042A000002BD4DD224B00221A70D7E90623B3F18C
:1042B000FF3F08BFB2F1FF3F35D0D7E90623C7E97A
:1042C00004231C4BFB60FB681A464FF00003D7E940
:1042D0000401994208BF904201D202460B46C7E949
:1042E0000623154B1B7883F00103DBB2002B05D0AE
:1042F0007B6823F07F42114B1A6002E00F4B7A6813
:104300001A600220FFF74AFBBA697B68134423F066
:104310007F4300201946FEF70DFC054B01221A7061
:104320000220FFF75BFB2837BD4680BD78010020E7
:10433000A90100209BFFFF00A8010020A001002090
:1043400080B483B000AF0346FB71FB79002B06D02D
:10435000084B084A126842F001021A6005E0054B5A
:10436000044A126822F001021A600C37BD465DF85B
:10437000047B704700A0084080B483B000AF0346C0
:10438000FB71FB79002B03D0054B01221A6602E07A
:10439000034B00221A660C37BD465DF8047B70475C
:1043A00000A0084080B483B000AF786000BF054B28
:1043B0005A6E7B681340002BF9D10C37BD465DF86F
:1043C000047B704700A0084080B483B000AF7860E1
:1043D000054B054A916A7A68D2430A409A620C37C3
:1043E000BD465DF8047B704700A0084080B500AF73
:1043F000002028490022FDF751FE01202549002216
:10440000FDF74CFE022023490022FDF747FE032062
:1044100020490022FDF742FE04201E490022FDF73C
:104420003DFE05201B490022FDF738FE06201949F4
:104430000022FDF733FE072016490022FDF72EFE6D
:104440000020FF210022FDF7E7FE0120FF210022CE
:10445000FDF7E2FE0220FF210022FDF7DDFE032032
:10446000FF210022FDF7D8FE0420FF210022FDF7E6
:10447000D3FE0520FF210022FDF7CEFE0620FF21FE
:104480000022FDF7C9FE0720FF210022FDF7C4FE30
:1044900080BD00BF00F00FF080B500AF07202649B7
:1044A0000022FDF7FBFD062024490022FDF7F6FD62
:1044B000052022490022FDF7F1FD04201F490022BA
:1044C000FDF7ECFD03201D490022FDF7E7FD02206A
:1044D0001A490022FDF7E2FD012018490022FDF7EC
:1044E000DDFD00204FF020410022FDF7D7FD072021
:1044F00007210022FDF790FE062007210022FDF78C
:104500008BFE052007210022FDF786FE04200721EF
:104510000022FDF781FE032007210022FDF77CFE2B
:10452000022007210022FDF777FE0120072100224B
:10453000FDF772FE00BF80BD00E00F5000E00FF0FD
:1045400080B584B000AF78603960114A7B6813444D
:1045500003F580739B79FB600D4A7B68134403F578
:1045600084739B79BB603B68002B07D0FA68BB68FB
:10457000104619460122FDF79FFC06E0FA68BB6869
:10458000104619460022FDF797FC1037BD4680BD46
:104590008862000080B500AF0020FFF7D1FE012047
:1045A000FFF700FF03480021FCF742FD024B002209
:1045B000DA6780BD0036260000800C4080B582B0EE
:1045C00000AF0346FB7125480121FCF731FD24486B
:1045D0000321FCF733FF23484021FCF713FC0120A3
:1045E000FDF778F820480121FCF722FD4FF0FF305D
:1045F000FFF7EAFE1D48FDF7E5FB08200121FDF766
:104600003BFC10200121FDF737FC80200121FDF744
:1046100033FC4FF480700121FDF72EFC4FF4007045
:104620000121FDF729FCFB79002B0DD04FF4402030
:10463000FDF7B0FE4FF48030FDF7FCFB0C4B0C4A4D
:10464000D26F42F00802DA67FFF7D0FE4FF0FF307A
:10465000FFF7A8FE0837BD4680BD00BF004302003B
:104660000200180060002400003626006465000087
:1046700000800C4080B58AB000AF78607A6842F262
:104680000E739A4202DD42F20F737B607B6813F572
:104690007A7F01DC3C4B7B607B68002B06DA786814
:1046A00000F0C4FE78600123BB6101E00023BB6120
:1046B0004FF0FF30FFF776FE0120FFF75DFE00F0C0
:1046C0006BF80123FB6100233B6254E07A68FB69CD
:1046D00092FBF3F12D4B83FB01239A10CB17D21AD7
:1046E00013469B0013445B00CA1A1346FB82BB6946
:1046F000012B04D13B6A032B01D11023FB82FA8AE0
:10470000234B33F81230BB8200237B6227E0214920
:104710003A6A1346DB009B1A5B00CA187B6A134493
:10472000C033DB7A3B611B493A6A1346DB009B1AB4
:104730005B00CA187B6A1344C0331B79FB60BA8ADA
:104740007B6A42FA03F303F00103002B04D0F868FC
:1047500039690122FDF7B0FB7B6A01337B627B6A1A
:10476000062BD4DDFA6913469B0013445B00FB6102
:104770003B6A01333B623B6A032BA7DD0020FFF756
:10478000FBFD2837BD4680BD19FCFFFF67666666E6
:10479000406500008862000080B500AF01207821EC
:1047A0000022FDF739FD022078210022FDF734FDBB
:1047B000032078210022FDF72FFD0420782100221C
:1047C000FDF72AFD052078210022FDF725FD0620B2
:1047D00078210022FDF720FD072078210022FDF737
:1047E0001BFD00BF80BD00BF80B584B000AF034695
:1047F0003960FB710023FB600023BB60FB79102B49
:1048000079D801A252F823F04D4800005748000023
:10481000614800006B480000754800007F480000B8
:1048200089480000934800009D480000A748000008
:10483000B1480000BB480000C5480000CF48000058
:10484000D9480000E3480000ED4800000123FB6068
:104850000C23BB604FE00023FB602023BB604AE0D9
:104860000323FB602723BB6045E00223FB600C238E
:10487000BB6040E00023FB601C23BB603BE00323E4
:10488000FB600C23BB6036E00423FB600C23BB60A1
:1048900031E00023FB601E23BB602CE00523FB609E
:1048A0002723BB6027E00023FB602223BB6022E0BC
:1048B0000023FB602323BB601DE00723FB600C2368
:1048C000BB6018E00523FB600C23BB6013E00623EC
:1048D000FB600C23BB600EE00723FB601D23BB6065
:1048E00009E00723FB601F23BB6004E00423FB6097
:1048F0002723BB6000BF3B68002B05D0F868B96870
:104900000122FDF7D9FA04E0F868B9680022FDF742
:10491000D3FA1037BD4680BD80B58AB000AF78604D
:10492000786800F01FFE0346BB6100233B624FF036
:10493000FF30FFF737FD0120FFF71EFDFFF7ACFD4D
:1049400000233B6246E03A6ABB699A4203DA7B681D
:104950001B787B6201E020237B627B6A203B7B62C9
:10496000214B7A6A33F81230FB820023FB6128E086
:104970001E493A6A1346DB009B1A9B00CA18FB6962
:10498000134408339B793B6118493A6A1346DB00AC
:104990009B1A9B00FA6913440B441B78FB60FA8A4C
:1049A000FB6942FA03F303F00103002B06D0FA6817
:1049B0003B69104619460122FDF77EFAFB69013377
:1049C000FB61FB690D2BD3DD7B6801337B603B6AA8
:1049D00001333B623B6A062BB5DD0020FFF7CCFCC0
:1049E0002837BD4680BD00BF886400008862000093
:1049F00080B400AF4FF080434FF08042126822F045
:104A000001021A60BD465DF8047B704780B483B034
:104A100000AF87ED010A97ED017ADFED097A37EEF5
:104A2000677ADFED087AC7EE277AFCEEE77A17EEB1
:104A3000903A18460C37BD465DF8047B704700BFBE
:104A40004260D53F96430B3D80B400AF4FF08043AA
:104A50009B6803F00203002B01D0012300E0002338
:104A60001846BD465DF8047B704700BF80B400AFB8
:104A70004FF080439B6803F00103002B01D001231A
:104A800000E000231846BD465DF8047B704700BF78
:104A900080B500AF04480121FCF7CAFA03480121A0
:104AA000FCF7C6FA80BD00BF0043020000E204002C
:104AB00080B500AFFFF79CFF02480021FCF7B8FA71
:104AC00080BD00BF00E20400B0B58AB000AF7860DE
:104AD000184B07F10C041D460FCD0FC495E80700D5
:104AE00084E8070097ED010AFFF790FF03463B6259
:104AF0000523BB7500233B77012387F8243007F19A
:104B00000C031846FEF79EF800BFFFF7AFFF034601
:104B100083F00103DBB2002BF7D1FFF795FF0346CB
:104B2000002B01D0002300E0012318462837BD46A2
:104B3000B0BD00BF78650000064880470649074AB7
:104B4000074B9A42BEBF51F8040B42F8040BF8E73A
:104B5000FBF7F0FAE54C00003C6600000000002086
:104B6000C8000020FEE700BF80B400AF044BDB6C40
:104B70001B0EDBB21846BD465DF8047B704700BFD4
:104B8000B081E00F80B582B000AF00F01FF8786010
:104B9000074B5B6803F00F037A6822FA03F37B602C
:104BA000044B7A681A607B6818460837BD4680BD9A
:104BB00000800C40CC01002080B400AF024B1846AE
:104BC000BD465DF8047B7047006CDC0280B582B0A6
:104BD00000AF334BDB6A03F47053B3F5805F0AD048
:104BE000B3F5005F03D0B3F5006F08D00BE02D4B99
:104BF0001B687B6047E04FF400437B6043E02A4B37
:104C00001B687B603FE0264BDB6803F4E063B3F591
:104C1000007F1BD0B3F5007F05D8002B24D0B3F55F
:104C2000807F16D02BE0B3F5806F09D0B3F5A06F6D
:104C300003D0B3F5407F06D021E01C4B7B6021E020
:104C40001B4B7B601EE01B4B7B601BE01A4B7B60A9
:104C500018E0FFF789FF0346122B02D9174B7B6040
:104C600010E0174B7B600DE0FFF77EFF0346122B31
:104C700002D9144B7B6005E0134B7B6002E00023FC
:104C80007B6000BF00BF064B1B6803F4E0339B0B47
:104C900001337A68B2FBF3F318460837BD4680BD8E
:104CA00000800C405400002050000020003FAB0169
:104CB000406F4001809FD500C0D8A70040B5640078
:104CC000C0CF6A00804F120040420F0080B400AF96
:104CD000034B1B681846BD465DF8047B704700BF58
:104CE0005000002080B400AF054B054AD2F8882060
:104CF00042F47002C3F88820BD465DF8047B70471B
:104D000000ED00E080B400AF4FF400431846BD460C
:104D10005DF8047B704700BF80B400AF4FF47A7336
:104D20001846BD465DF8047B704700BF80B400AFF5
:104D3000034B1B681846BD465DF8047B704700BFF7
:104D40005400002080B582B000AF3A4B394A526C13
:104D500042F400525A64384B374AD2F8202142F0CC
:104D60000402C3F82021344B334AD2F8202122F424
:104D70004072C3F82021304B2F4AD2F8B82022F4D9
:104D80007062C3F8B8202C4B2B4AD2F8B82042F4FA
:104D90008062C3F8B820274B10221A6200BF254B4F
:104DA000DB6A03F02003002BF9D0244B234A12685E
:104DB00042F001021A60214B204AD26842F0807210
:104DC000DA601F4B1F4A1A604FF46020FCF79AF913
:104DD000034603F5D52303F2FC437B607B68DA08C6
:104DE000194BA3FB02139B0A3B60184B3A68013A2C
:104DF0001A61164B0222C3F8F020144B4FF4807254
:104E0000C3F804234FF06043114AC3F8B02F4FF0AA
:104E10006043104AC3F8802E4FF060434FF0604269
:104E2000D2F8002E42F00102C3F8002E0837BD462A
:104E300080BD00BF00800C4000600040F0ED00E04D
:104E4000001000E0FF13014017916502000004E02C
:104E500055CEACC50900010080B582B000AF4FF05F
:104E60007E637B607B681B68002B01D1002302E01E
:104E7000FFF768FF012318460837BD4680BD00BF15
:104E80004BB942B9002908BF002802D04FF0FF31CA
:104E9000084600F03BB882B0EC462DE9005000F027
:104EA0001DF8DDF804E002B00CBC70472DE970433A
:104EB000069E14461D468046894600F029F804FBEC
:104EC00001F300FB0533A4FB00451D44B8EB0404CB
:104ED00069EB0505C6E90045BDE870832DE970431F
:104EE000069E1446804689461D4600F05DF900FB8B
:104EF00005F504FB0153A0FB04451D44B8EB040475
:104F000069EB0505C6E90045BDE87083704700BF41
:104F100000292DE9F00FC0F29F800024002BC0F281
:104F20009680154606460F46002B3ED18A4257D939
:104F3000B2FA82F34BB1C3F1200201FA03F720FA6F
:104F400002F29D40174300FA03F6290CB7FBF1F279
:104F5000330C01FB127CA8B243EA0C4700FB02F3BE
:104F6000BB4209D97F1902F1FF3C80F00181BB42AD
:104F700040F2FE80023A2F44FF1AB7FBF1F3B6B2BB
:104F800001FB137146EA014100FB03F0884208D996
:104F9000491903F1FF3780F0ED80884240F2EA8042
:104FA000023B43EA0242002303E08B420AD900237A
:104FB0001A461046194614B1404261EB4101BDE862
:104FC000F00F7047B3FA83F8B8F1000F40F0848017
:104FD0008B4202D3824200F2DE8000230122E8E706
:104FE00012B90123B3FBF2F5B5FA85F2002A39D1E3
:104FF0007F1B280C1FFA85FC0123B7FBF0F1320C54
:1050000000FB117742EA07470CFB01F2BA4207D9CD
:105010007F1901F1FF3802D2BA4200F2C180414645
:10502000BF1AB7FBF0F2B6B200FB127046EA0040BE
:105030000CFB02FC844507D9401902F1FF3702D26C
:10504000844500F2AB803A4642EA0142B1E7E443CC
:10505000524263EB430364E7404261EB41014FF08E
:10506000FF345BE79540C2F1200327FA03F1280CD7
:1050700026FA03F39740B1FBF0F81F433B0C00FB0B
:1050800018111FFA85FC43EA01410CFB08F38B421F
:1050900006FA02F608D9491908F1FF3279D28B4293
:1050A00077D9A8F102082944C91AB1FBF0F3BFB2BD
:1050B00000FB131147EA01470CFB03F2BA4207D980
:1050C0007F1903F1FF3160D2BA425ED9023B2F440F
:1050D000BF1A43EA084390E7C8F1200203FA08FC2C
:1050E00025FA02F343EA0C0C4FEA1C4921FA02F3B9
:1050F00001FA08F720FA02F2B3FBF9F1174309FBB2
:1051000011333A0C1FFA8CFB42EA03430BFB01FA02
:105110009A4505FA08F008D913EB0C0301F1FF32A8
:1051200035D29A4533D902396344CAEB0303B3FB42
:10513000F9F209FB1233BFB247EA03470BFB02F94E
:10514000B94508D917EB0C0702F1FF331BD2B9455B
:1051500019D9023A674442EA0145A5FB0001C9EBAF
:1051600007078F424FF000030AD305D02A4620E7F5
:10517000624601E73B4614E706FA08F68642F5D296
:105180006A1E002315E71A46E5E70B46A0E711461D
:10519000CBE7904688E7434642460AE7023A53E7A0
:1051A00002392F443CE700BF2DE9F00F14460546B5
:1051B0000E46002B43D18A4253D9B2FA82F757B137
:1051C000C7F1200620FA06F601FA07F302FA07F4FF
:1051D0001E4300FA07F5210CB6FBF1F22B0C01FB84
:1051E0001267A0B243EA074600FB02F3B34209D9B3
:1051F000361902F1FF3780F0F680B34240F2F380B7
:10520000023A2644F61AB6FBF1F3ADB201FB136184
:1052100045EA014100FB03F0884208D9091903F16E
:10522000FF3680F0E280884240F2DF80023B43EAB2
:105230000242002310461946BDE8F00F70478B422A
:105240004AD8B3FA83F6002E4DD18B4202D3824264
:1052500000F2D6800023012210461946BDE8F00F67
:10526000704712B90124B4FBF2F4B4FA84F2002AB4
:105270007CD1091B260CA7B20123B1FBF6F02A0C46
:1052800006FB101142EA014107FB00F28A4207D9EE
:10529000091900F1FF3C02D28A4200F2C380604645
:1052A000891AB1FBF6F2ADB206FB121145EA0145CF
:1052B00007FB02F7AF4208D92C1902F1FF3180F049
:1052C0009680A74240F29380023A42EA004210469A
:1052D0001946BDE8F00F704700231A4610461946DC
:1052E000BDE8F00F7047C6F1200522FA05F4B3407F
:1052F0001C434FEA144821FA05F301FA06F720FA95
:1053000005F5B3FBF8FC2F4308FB1C333D0C1FFADB
:1053100084FA45EA03430AFB0CF9994502FA06FBB5
:1053200004D91B190CF1FF326DD39446C9EB03036A
:10533000B3FBF8F508FB1533BFB247EA03470AFB96
:1053400005F8B84504D93F1905F1FF3361D31D466F
:1053500045EA0C4CACFB0B23C8EB07079F424FF010
:10536000000549D345D062462B4663E79440C2F11D
:10537000200321FA03FC260C20FA03F301FA02F5BC
:10538000BCFBF6F843EA05010B0C06FB18CCA7B2F0
:1053900043EA0C4C07FB08F3634500FA02F509D910
:1053A0001CEB040C08F1FF323AD2634538D9A8F15E
:1053B0000208A444C3EB0C0CBCFBF6F389B206FB59
:1053C00013CC41EA0C4107FB03F28A4207D90919C1
:1053D00003F1FF3022D28A4220D9023B2144891AAC
:1053E00043EA084349E73A460CE733461FE70A46D3
:1053F0006BE7B0409042B6D20CF1FF32002319E7C0
:105400003346324616E799458FD9ACF1020C234456
:105410008CE7B8459BD9023D274499E70346DEE770
:105420009046C7E7023821443AE700BF0028B8BFDA
:105430004042704708B5074B044613B10021AFF353
:105440000080054B1868836A03B19847204600F036
:1054500087FC00BF000000009865000070B50E4B8F
:105460000E4DED1AAD1000241E46AC4204D056F885
:10547000242090470134F8E700F074FC084D094BF4
:10548000ED1AAD1000241E46AC4204D056F824207C
:1054900090470134F8E770BDBC000020BC0000203C
:1054A000C0000020BC00002002440346934202D00A
:1054B00003F8011BFAE770470CB430B5164B0C1E0D
:1054C0009DB01D6804DA8B232B604FF0FF301EE087
:1054D0004FF40273ADF8143014BF04F1FF332346C8
:1054E000049307934FF6FF7302900690ADF81630C1
:1054F000284621AB02A9209A019300F097F8431C9B
:10550000BCBF8B232B6014B1029B00221A701DB00C
:10551000BDE8304002B07047B80000200EB400B5BE
:105520009CB04FF40271ADF814106FF0004104917B
:1055300007914FF6FF711DABADF81610084953F8EF
:10554000042B029006900868019302A900F06EF8FF
:10555000029B00221A701CB05DF804EB03B0704788
:10556000B8000020034613F8012B002AFBD1181ABB
:10557000013870472DE9F0478D68AB4281460C46F3
:1055800092461F4643D38B8913F4906F3DD0266813
:105590000969C1EB06086669022206EB460696FB1E
:1055A000F2F608F101023A44964238BF16465B050E
:1055B0000FD5314600F026FB054698B121694246D9
:1055C00000F0B7FAA38923F4906343F08003A3812A
:1055D00013E0324600F06AFB054670B9484621697F
:1055E00000F0CCFA0C23C9F80030A38943F0400343
:1055F000A3814FF0FF30BDE8F08725616661454427
:10560000C8EB06062560A6603D46AF4200D23D4687
:105610002A462068514600F095FAA3685B1BA360F8
:1056200023681D4425600020BDE8F0872DE9F04384
:105630009DB0074603938B891C060D4616460CD574
:105640000B6953B9402100F0DDFA2860286110B9D8
:105650000C233B60C8E040236B61002309932023A7
:105660008DF8293030238DF82A3033461C4613F844
:10567000012B1AB9B4EB06090FD002E0252AF5D1A7
:10568000F8E73846294632464B46FFF773FF0130AC
:1056900000F0A580099B4B4409932378002B00F070
:1056A0009E8000234FF0FF320493079305920693E8
:1056B0008DF853301A9304F101094C464D4E217870
:1056C0003046052200F026FA09F10109049B28B1B1
:1056D000861B0120B04003430493EEE7D90644BF84
:1056E00020228DF853201A0744BF2B228DF8532017
:1056F00022782A2A02D0079B21460EE0039A111D28
:1057000012680391002A01DB079204E0524243F041
:1057100002030792049301340AE00C460131227817
:10572000303A092A03D80A2000FB0323F5E7079340
:1057300023782E2B1AD163782A2B0AD1039B1A1DAA
:105740001B680392002B04F10204B8BF4FF0FF3333
:105750000BE0611C00230C4601312278303A092A03
:1057600003D80A2000FB0323F5E70593224E217896
:105770003046032200F0CEF930B1861B049B402056
:10578000B04003430493013421781C488DF828105D
:105790000622661C00F0BEF988B1194B33B9039B91
:1057A000073323F007030833039314E003AB00939C
:1057B000384604A92A46134BAFF3008007E003AB39
:1057C0000093384604A92A460E4B00F08FF8B0F13A
:1057D000FF3F804603D0099B4344099345E7AB89CB
:1057E0005B0601D4099801E04FF0FF301DB0BDE821
:1057F000F08300BF9C650000A2650000A665000064
:1058000000000000755500002DE9F84315461F46BD
:105810008A680B69DDF820809A42A8BF13462B6086
:1058200091F8432006460C460AB101332B602368E9
:10583000990602D52B6802332B60236813F0060902
:105840001DD094F843302268003318BF012392061C
:105850001FD5E1185A1C302081F84300224494F8E7
:10586000451082F84310023313E03046394604F104
:1058700019020123C047013007D009F10109E2688C
:105880002B68D31A9945F0DBDBE74FF0FF30BDE81A
:10589000F8833046394604F14302C0470130F4D062
:1058A00023682A68E16803F00603042B08BFC2EBF3
:1058B00001052369A2680CBF25EAE57500259A4217
:1058C000C4BFC3EB0203ED184FF00009A9450ADA83
:1058D0003046394604F11A020123C0470130D4D0C2
:1058E00009F10109F2E70020BDE8F8832DE9FF473F
:1058F0000E7E0C9D6E2E80460C4691469A4601F116
:10590000430000F0A58011D8632E22D009D8002EC4
:1059100000F0AF80582E40F0BF8081F845607B4A90
:105920004FE0642E1ED0692E1CD0B5E0732E00F01F
:10593000A48009D86F2E2BD0702E40F0AD800B685C
:1059400043F020030B6038E0752E21D0782E34D040
:10595000A2E02B681A1D1B682A6001F1420781F83A
:1059600042309DE022682B6812F0800F03D01A1D90
:105970002A601D6805E05106F9D51A1D2A60B3F9A1
:105980000050002D39DA2D236D4284F8433034E085
:1059900022682B6812F0800F03D01A1D2A601D6840
:1059A00004E05206F9D51A1D2A601D88237E574A45
:1059B0006F2B14BF0A2308231BE07823544A84F872
:1059C00045302368296813F0800F01F104062E602A
:1059D00001D00D6802E05F06FBD50D88DE0744BFED
:1059E00043F0200323601DB9236823F020032360C4
:1059F0001023002184F8431001E0444A0A2366681A
:105A0000A660002E03DB216821F00401216005B9A6
:105A10006EB104F14201B5FBF3F603FB16550F46D8
:105A2000555D01F801593546002EF4D100E00746D6
:105A3000082B0AD12368DD0707D5626823699A42DB
:105A400003DC302307F8013C013FC01B20612CE040
:105A500009682B68626911F0800F04D0191D296054
:105A60001B681A6005E04906F8D5191D29601B68F6
:105A70001A8000232361074617E02B681A1D2A604D
:105A80001F683846FFF76EFD63682061984288BF43
:105A900023612369636005E004F1420784F84260F2
:105AA00001232361002384F84330CDF800A0404651
:105AB000214603AA4B46FFF7A7FE013002D14FF063
:105AC000FF301FE0404649463A462369D04701303F
:105AD000F5D023689B0705D4E068039B9842B8BFC4
